{
    "abi": [
        {
            "type": "function",
            "name": "fees",
            "inputs": [],
            "outputs": [
                {
                    "name": "",
                    "type": "uint256",
                    "internalType": "uint256"
                }
            ],
            "stateMutability": "view"
        },
        {
            "type": "function",
            "name": "join",
            "inputs": [
                {
                    "name": "creator",
                    "type": "address",
                    "internalType": "address payable"
                }
            ],
            "outputs": [],
            "stateMutability": "payable"
        },
        {
            "type": "function",
            "name": "members",
            "inputs": [
                {
                    "name": "",
                    "type": "address",
                    "internalType": "address"
                },
                {
                    "name": "",
                    "type": "address",
                    "internalType": "address"
                }
            ],
            "outputs": [
                {
                    "name": "",
                    "type": "bool",
                    "internalType": "bool"
                }
            ],
            "stateMutability": "view"
        },
        {
            "type": "error",
            "name": "onlyfans_alreadyAMember",
            "inputs": [
                {
                    "name": "creator",
                    "type": "address",
                    "internalType": "address"
                }
            ]
        },
        {
            "type": "error",
            "name": "onlyfans_notEnoughFees",
            "inputs": []
        },
        {
            "type": "error",
            "name": "onlyfans_transactionFailed",
            "inputs": []
        },
        {
            "type": "error",
            "name": "onlyfans_valueCannotBeZero",
            "inputs": []
        }
    ],
    "bytecode": {
        "object": "0x6080604052348015600f57600080fd5b506102b48061001f6000396000f3fe6080604052600436106100345760003560e01c806328ffe6c8146100395780639af1d35a1461004e578063be43e0451461007b575b600080fd5b61004c610047366004610221565b6100c3565b005b34801561005a57600080fd5b50610068655af3107a400081565b6040519081526020015b60405180910390f35b34801561008757600080fd5b506100b3610096366004610245565b600060208181529281526040808220909352908152205460ff1681565b6040519015158152602001610072565b655af3107a40003410156100ea57604051630f2464bf60e41b815260040160405180910390fd5b3460000361010b57604051632600475960e01b815260040160405180910390fd5b6001600160a01b03811660009081526020818152604080832033845290915290205460ff16151560010361016157604051632d969b3960e11b81526001600160a01b038216600482015260240160405180910390fd5b6000816001600160a01b0316655af3107a400060405160006040518083038185875af1925050503d80600081146101b4576040519150601f19603f3d011682016040523d82523d6000602084013e6101b9565b606091505b50509050806101db576040516311a43e3560e21b815260040160405180910390fd5b506001600160a01b03166000908152602081815260408083203384529091529020805460ff19166001179055565b6001600160a01b038116811461021e57600080fd5b50565b60006020828403121561023357600080fd5b813561023e81610209565b9392505050565b6000806040838503121561025857600080fd5b823561026381610209565b9150602083013561027381610209565b80915050925092905056fea26469706673582212209b65f3db2a1bbafd9ba7715b203bcbeb9a1f0835f7c62d66e1360c4a5fa909a164736f6c634300081a0033",
        "linkReferences": {}
    },
    "methodIdentifiers": {
        "fees()": "9af1d35a",
        "join(address)": "28ffe6c8",
        "members(address,address)": "be43e045"
    },
    "id": 23
}